{
  "_format": "hh-sol-artifact-1",
  "contractName": "Factory",
  "sourceName": "contracts/Factory.sol",
  "abi": [
    {
      "anonymous": false,
      "inputs": [
        {
          "indexed": false,
          "internalType": "address",
          "name": "projectAddress",
          "type": "address"
        },
        {
          "indexed": false,
          "internalType": "address",
          "name": "contractor",
          "type": "address"
        }
      ],
      "name": "ProjectCreated",
      "type": "event"
    },
    {
      "inputs": [
        {
          "internalType": "address",
          "name": "contractor",
          "type": "address"
        },
        {
          "internalType": "address[]",
          "name": "approvers",
          "type": "address[]"
        },
        {
          "internalType": "uint256[]",
          "name": "amounts",
          "type": "uint256[]"
        },
        {
          "internalType": "uint256[]",
          "name": "deadlines",
          "type": "uint256[]"
        },
        {
          "internalType": "uint8",
          "name": "threshold",
          "type": "uint8"
        }
      ],
      "name": "createProject",
      "outputs": [],
      "stateMutability": "payable",
      "type": "function"
    },
    {
      "inputs": [],
      "name": "getProjects",
      "outputs": [
        {
          "internalType": "address[]",
          "name": "",
          "type": "address[]"
        }
      ],
      "stateMutability": "view",
      "type": "function"
    },
    {
      "inputs": [
        {
          "internalType": "uint256",
          "name": "",
          "type": "uint256"
        }
      ],
      "name": "projects",
      "outputs": [
        {
          "internalType": "address",
          "name": "",
          "type": "address"
        }
      ],
      "stateMutability": "view",
      "type": "function"
    }
  ],
  "bytecode": "0x608060405234801561001057600080fd5b50612fd3806100206000396000f3fe608060405260043610620000385760003560e01c8063107046bd146200003d5780637441d8241462000081578063dcc6012814620000a1575b600080fd5b3480156200004a57600080fd5b50620000696004803603810190620000639190620002ed565b620000d1565b60405162000078919062000364565b60405180910390f35b6200009f60048036038101906200009991906200063b565b62000111565b005b348015620000ae57600080fd5b50620000b962000200565b604051620000c89190620007ee565b60405180910390f35b60008181548110620000e257600080fd5b906000526020600020016000915054906101000a900473ffffffffffffffffffffffffffffffffffffffff1681565b600034338787878787604051620001289062000290565b6200013996959493929190620008f1565b6040518091039082f090508015801562000157573d6000803e3d6000fd5b5090506000819080600181540180825580915050600190039060005260206000200160009091909190916101000a81548173ffffffffffffffffffffffffffffffffffffffff021916908373ffffffffffffffffffffffffffffffffffffffff1602179055507f8cb1f5e0b7508307e592a641586f535256dba226b02388100691c6133f65e22e8187604051620001f092919062000973565b60405180910390a1505050505050565b606060008054806020026020016040519081016040528092919081815260200182805480156200028657602002820191906000526020600020905b8160009054906101000a900473ffffffffffffffffffffffffffffffffffffffff1673ffffffffffffffffffffffffffffffffffffffff16815260200190600101908083116200023b575b5050505050905090565b6125fd80620009a183390190565b6000604051905090565b600080fd5b600080fd5b6000819050919050565b620002c781620002b2565b8114620002d357600080fd5b50565b600081359050620002e781620002bc565b92915050565b600060208284031215620003065762000305620002a8565b5b60006200031684828501620002d6565b91505092915050565b600073ffffffffffffffffffffffffffffffffffffffff82169050919050565b60006200034c826200031f565b9050919050565b6200035e816200033f565b82525050565b60006020820190506200037b600083018462000353565b92915050565b6200038c816200033f565b81146200039857600080fd5b50565b600081359050620003ac8162000381565b92915050565b600080fd5b6000601f19601f8301169050919050565b7f4e487b7100000000000000000000000000000000000000000000000000000000600052604160045260246000fd5b6200040282620003b7565b810181811067ffffffffffffffff82111715620004245762000423620003c8565b5b80604052505050565b6000620004396200029e565b9050620004478282620003f7565b919050565b600067ffffffffffffffff8211156200046a5762000469620003c8565b5b602082029050602081019050919050565b600080fd5b60006200049762000491846200044c565b6200042d565b90508083825260208201905060208402830185811115620004bd57620004bc6200047b565b5b835b81811015620004ea5780620004d588826200039b565b845260208401935050602081019050620004bf565b5050509392505050565b600082601f8301126200050c576200050b620003b2565b5b81356200051e84826020860162000480565b91505092915050565b600067ffffffffffffffff821115620005455762000544620003c8565b5b602082029050602081019050919050565b60006200056d620005678462000527565b6200042d565b905080838252602082019050602084028301858111156200059357620005926200047b565b5b835b81811015620005c05780620005ab8882620002d6565b84526020840193505060208101905062000595565b5050509392505050565b600082601f830112620005e257620005e1620003b2565b5b8135620005f484826020860162000556565b91505092915050565b600060ff82169050919050565b6200061581620005fd565b81146200062157600080fd5b50565b60008135905062000635816200060a565b92915050565b600080600080600060a086880312156200065a5762000659620002a8565b5b60006200066a888289016200039b565b955050602086013567ffffffffffffffff8111156200068e576200068d620002ad565b5b6200069c88828901620004f4565b945050604086013567ffffffffffffffff811115620006c057620006bf620002ad565b5b620006ce88828901620005ca565b935050606086013567ffffffffffffffff811115620006f257620006f1620002ad565b5b6200070088828901620005ca565b9250506080620007138882890162000624565b9150509295509295909350565b600081519050919050565b600082825260208201905092915050565b6000819050602082019050919050565b62000757816200033f565b82525050565b60006200076b83836200074c565b60208301905092915050565b6000602082019050919050565b6000620007918262000720565b6200079d81856200072b565b9350620007aa836200073c565b8060005b83811015620007e1578151620007c588826200075d565b9750620007d28362000777565b925050600181019050620007ae565b5085935050505092915050565b600060208201905081810360008301526200080a818462000784565b905092915050565b600081519050919050565b600082825260208201905092915050565b6000819050602082019050919050565b6200084981620002b2565b82525050565b60006200085d83836200083e565b60208301905092915050565b6000602082019050919050565b6000620008838262000812565b6200088f81856200081d565b93506200089c836200082e565b8060005b83811015620008d3578151620008b788826200084f565b9750620008c48362000869565b925050600181019050620008a0565b5085935050505092915050565b620008eb81620005fd565b82525050565b600060c08201905062000908600083018962000353565b62000917602083018862000353565b81810360408301526200092b818762000784565b9050818103606083015262000941818662000876565b9050818103608083015262000957818562000876565b90506200096860a0830184620008e0565b979650505050505050565b60006040820190506200098a600083018562000353565b62000999602083018462000353565b939250505056fe6080604052604051620025fd380380620025fd833981810160405281019062000029919062000659565b815183511462000070576040517f08c379a00000000000000000000000000000000000000000000000000000000081526004016200006790620007b3565b60405180910390fd5b856000806101000a81548173ffffffffffffffffffffffffffffffffffffffff021916908373ffffffffffffffffffffffffffffffffffffffff16021790555084600160006101000a81548173ffffffffffffffffffffffffffffffffffffffff021916908373ffffffffffffffffffffffffffffffffffffffff1602179055508360059080519060200190620001099291906200026e565b5080600460006101000a81548160ff021916908360ff16021790555034600281905550825160088190555060005b8451811015620001cc576001600660008784815181106200015d576200015c620007d5565b5b602002602001015173ffffffffffffffffffffffffffffffffffffffff1673ffffffffffffffffffffffffffffffffffffffff16815260200190815260200160002060006101000a81548160ff0219169083151502179055508080620001c39062000833565b91505062000137565b5060005b6008548110156200026157838181518110620001f157620001f0620007d5565b5b60200260200101516009600083815260200190815260200160002060000181905550828181518110620002295762000228620007d5565b5b602002602001015160096000838152602001908152602001600020600101819055508080620002589062000833565b915050620001d0565b5050505050505062000880565b828054828255906000526020600020908101928215620002ea579160200282015b82811115620002e95782518260006101000a81548173ffffffffffffffffffffffffffffffffffffffff021916908373ffffffffffffffffffffffffffffffffffffffff160217905550916020019190600101906200028f565b5b509050620002f99190620002fd565b5090565b5b8082111562000318576000816000905550600101620002fe565b5090565b6000604051905090565b600080fd5b600080fd5b600073ffffffffffffffffffffffffffffffffffffffff82169050919050565b60006200035d8262000330565b9050919050565b6200036f8162000350565b81146200037b57600080fd5b50565b6000815190506200038f8162000364565b92915050565b600080fd5b6000601f19601f8301169050919050565b7f4e487b7100000000000000000000000000000000000000000000000000000000600052604160045260246000fd5b620003e5826200039a565b810181811067ffffffffffffffff82111715620004075762000406620003ab565b5b80604052505050565b60006200041c6200031c565b90506200042a8282620003da565b919050565b600067ffffffffffffffff8211156200044d576200044c620003ab565b5b602082029050602081019050919050565b600080fd5b60006200047a62000474846200042f565b62000410565b90508083825260208201905060208402830185811115620004a0576200049f6200045e565b5b835b81811015620004cd5780620004b888826200037e565b845260208401935050602081019050620004a2565b5050509392505050565b600082601f830112620004ef57620004ee62000395565b5b81516200050184826020860162000463565b91505092915050565b600067ffffffffffffffff821115620005285762000527620003ab565b5b602082029050602081019050919050565b6000819050919050565b6200054e8162000539565b81146200055a57600080fd5b50565b6000815190506200056e8162000543565b92915050565b60006200058b62000585846200050a565b62000410565b90508083825260208201905060208402830185811115620005b157620005b06200045e565b5b835b81811015620005de5780620005c988826200055d565b845260208401935050602081019050620005b3565b5050509392505050565b600082601f8301126200060057620005ff62000395565b5b81516200061284826020860162000574565b91505092915050565b600060ff82169050919050565b62000633816200061b565b81146200063f57600080fd5b50565b600081519050620006538162000628565b92915050565b60008060008060008060c0878903121562000679576200067862000326565b5b60006200068989828a016200037e565b96505060206200069c89828a016200037e565b955050604087015167ffffffffffffffff811115620006c057620006bf6200032b565b5b620006ce89828a01620004d7565b945050606087015167ffffffffffffffff811115620006f257620006f16200032b565b5b6200070089828a01620005e8565b935050608087015167ffffffffffffffff8111156200072457620007236200032b565b5b6200073289828a01620005e8565b92505060a06200074589828a0162000642565b9150509295509295509295565b600082825260208201905092915050565b7f496e76616c696420696e70757400000000000000000000000000000000000000600082015250565b60006200079b600d8362000752565b9150620007a88262000763565b602082019050919050565b60006020820190508181036000830152620007ce816200078c565b9050919050565b7f4e487b7100000000000000000000000000000000000000000000000000000000600052603260045260246000fd5b7f4e487b7100000000000000000000000000000000000000000000000000000000600052601160045260246000fd5b6000620008408262000539565b91507fffffffffffffffffffffffffffffffffffffffffffffffffffffffffffffffff820362000875576200087462000804565b5b600182019050919050565b611d6d80620008906000396000f3fe608060405234801561001057600080fd5b50600436106101005760003560e01c8063968ed60011610097578063caaed30211610066578063caaed3021461028f578063d3650fb8146102ab578063e89e4ed6146102db578063fbfd20451461031157610100565b8063968ed60014610219578063b030481314610237578063b48c0d2614610255578063c438b40f1461027357610100565b80632d1fdef6116100d35780632d1fdef6146101935780634d68282f146101af5780636d218e48146101cb5780637d0eef61146101fb57610100565b80630681ca55146101055780632442e1cb146101235780632672f526146101595780632af0051014610177575b600080fd5b61010d61032f565b60405161011a91906110b6565b60405180910390f35b61013d60048036038101906101389190611111565b610335565b6040516101509796959493929190611205565b60405180910390f35b610161610453565b60405161016e91906112bc565b60405180910390f35b610191600480360381019061018c919061140c565b610477565b005b6101ad60048036038101906101a89190611468565b61060b565b005b6101c960048036038101906101c49190611111565b61075d565b005b6101e560048036038101906101e091906114d4565b61092f565b6040516101f29190611501565b60405180910390f35b61020361094f565b604051610210919061151c565b60405180910390f35b610221610962565b60405161022e91906110b6565b60405180910390f35b61023f610968565b60405161024c91906110b6565b60405180910390f35b61025d61096e565b60405161026a91906110b6565b60405180910390f35b61028d60048036038101906102889190611111565b610974565b005b6102a960048036038101906102a49190611111565b610c57565b005b6102c560048036038101906102c09190611111565b610f3a565b6040516102d291906112bc565b60405180910390f35b6102f560048036038101906102f09190611111565b610f79565b6040516103089796959493929190611205565b60405180910390f35b610319611077565b60405161032691906112bc565b60405180910390f35b60085481565b60008060606000806000806000600960008a8152602001908152602001600020905080600001548160010154826002018360030160009054906101000a900460ff168460030160019054906101000a900460ff168560030160029054906101000a900460ff168660030160039054906101000a900460ff168480546103b990611566565b80601f01602080910402602001604051908101604052809291908181526020018280546103e590611566565b80156104325780601f1061040757610100808354040283529160200191610432565b820191906000526020600020905b81548152906001019060200180831161041557829003601f168201915b50505050509450975097509750975097509750975050919395979092949650565b60008054906101000a900473ffffffffffffffffffffffffffffffffffffffff1681565b600160009054906101000a900473ffffffffffffffffffffffffffffffffffffffff1673ffffffffffffffffffffffffffffffffffffffff163373ffffffffffffffffffffffffffffffffffffffff1614610507576040517f08c379a00000000000000000000000000000000000000000000000000000000081526004016104fe906115e3565b60405180910390fd5b600754821461054b576040517f08c379a00000000000000000000000000000000000000000000000000000000081526004016105429061164f565b60405180910390fd5b600060096000848152602001908152602001600020905060008160030160006101000a81548160ff021916908360ff16021790555060008160030160016101000a81548160ff021916908360ff160217905550818160020190816105af919061181b565b5060018160030160026101000a81548160ff0219169083151502179055507fc577bdeb8da1059fec56a8d1554e25846f18ebf046c214b145cac25f76bda35083836040516105fe9291906118ed565b60405180910390a1505050565b600660003373ffffffffffffffffffffffffffffffffffffffff1673ffffffffffffffffffffffffffffffffffffffff16815260200190815260200160002060009054906101000a900460ff16610697576040517f08c379a000000000000000000000000000000000000000000000000000000000815260040161068e90611969565b60405180910390fd5b60006009600084815260200190815260200160002090508060030160039054906101000a900460ff1615610700576040517f08c379a00000000000000000000000000000000000000000000000000000000081526004016106f7906119d5565b60405180910390fd5b818160010160008282546107149190611a24565b925050819055507f073d5fd87a7e0c2a384727f9aab2e84826370623aba582638b425a417e799a2c838260010154604051610750929190611a58565b60405180910390a1505050565b6000600960008381526020019081526020016000209050600460009054906101000a900460ff1660ff168160030160009054906101000a900460ff1660ff1610156107dd576040517f08c379a00000000000000000000000000000000000000000000000000000000081526004016107d490611acd565b60405180910390fd5b8060030160039054906101000a900460ff161561082f576040517f08c379a000000000000000000000000000000000000000000000000000000000815260040161082690611b39565b60405180910390fd5b60018160030160036101000a81548160ff0219169083151502179055508060000154600360008282546108629190611a24565b92505081905550600160009054906101000a900473ffffffffffffffffffffffffffffffffffffffff1673ffffffffffffffffffffffffffffffffffffffff166108fc82600001549081150290604051600060405180830381858888f193505050501580156108d5573d6000803e3d6000fd5b50600760008154809291906108e990611b59565b91905055507f80230996023d69b50793fa73f1919127c9d8e741d3989743c479169f22e7a288828260000154604051610923929190611a58565b60405180910390a15050565b60066020528060005260406000206000915054906101000a900460ff1681565b600460009054906101000a900460ff1681565b60025481565b60075481565b60035481565b600660003373ffffffffffffffffffffffffffffffffffffffff1673ffffffffffffffffffffffffffffffffffffffff16815260200190815260200160002060009054906101000a900460ff16610a00576040517f08c379a00000000000000000000000000000000000000000000000000000000081526004016109f790611969565b60405180910390fd5b60006009600083815260200190815260200160002090508060030160029054906101000a900460ff16610a68576040517f08c379a0000000000000000000000000000000000000000000000000000000008152600401610a5f90611bed565b60405180910390fd5b8060040160003373ffffffffffffffffffffffffffffffffffffffff1673ffffffffffffffffffffffffffffffffffffffff16815260200190815260200160002060009054906101000a900460ff1615610af7576040517f08c379a0000000000000000000000000000000000000000000000000000000008152600401610aee90611c59565b60405180910390fd5b8060050160003373ffffffffffffffffffffffffffffffffffffffff1673ffffffffffffffffffffffffffffffffffffffff16815260200190815260200160002060009054906101000a900460ff1615610b86576040517f08c379a0000000000000000000000000000000000000000000000000000000008152600401610b7d90611cc5565b60405180910390fd5b60018160040160003373ffffffffffffffffffffffffffffffffffffffff1673ffffffffffffffffffffffffffffffffffffffff16815260200190815260200160002060006101000a81548160ff02191690831515021790555080600301600081819054906101000a900460ff1680929190610c0190611ce5565b91906101000a81548160ff021916908360ff160217905550507f553edf5d6a50b30b5e1faa5428a9962e9b3af648e5ab3791bf7e79ccb10f7f558233604051610c4b929190611d0e565b60405180910390a15050565b600660003373ffffffffffffffffffffffffffffffffffffffff1673ffffffffffffffffffffffffffffffffffffffff16815260200190815260200160002060009054906101000a900460ff16610ce3576040517f08c379a0000000000000000000000000000000000000000000000000000000008152600401610cda90611969565b60405180910390fd5b60006009600083815260200190815260200160002090508060030160029054906101000a900460ff16610d4b576040517f08c379a0000000000000000000000000000000000000000000000000000000008152600401610d4290611bed565b60405180910390fd5b8060050160003373ffffffffffffffffffffffffffffffffffffffff1673ffffffffffffffffffffffffffffffffffffffff16815260200190815260200160002060009054906101000a900460ff1615610dda576040517f08c379a0000000000000000000000000000000000000000000000000000000008152600401610dd190611cc5565b60405180910390fd5b8060040160003373ffffffffffffffffffffffffffffffffffffffff1673ffffffffffffffffffffffffffffffffffffffff16815260200190815260200160002060009054906101000a900460ff1615610e69576040517f08c379a0000000000000000000000000000000000000000000000000000000008152600401610e6090611c59565b60405180910390fd5b60018160050160003373ffffffffffffffffffffffffffffffffffffffff1673ffffffffffffffffffffffffffffffffffffffff16815260200190815260200160002060006101000a81548160ff02191690831515021790555080600301600181819054906101000a900460ff1680929190610ee490611ce5565b91906101000a81548160ff021916908360ff160217905550507f41063fc3dca02ae91075a3d62ddbb87d2571bc1243e63e411b756b53e9ba3fdb8233604051610f2e929190611d0e565b60405180910390a15050565b60058181548110610f4a57600080fd5b906000526020600020016000915054906101000a900473ffffffffffffffffffffffffffffffffffffffff1681565b6009602052806000526040600020600091509050806000015490806001015490806002018054610fa890611566565b80601f0160208091040260200160405190810160405280929190818152602001828054610fd490611566565b80156110215780601f10610ff657610100808354040283529160200191611021565b820191906000526020600020905b81548152906001019060200180831161100457829003601f168201915b5050505050908060030160009054906101000a900460ff16908060030160019054906101000a900460ff16908060030160029054906101000a900460ff16908060030160039054906101000a900460ff16905087565b600160009054906101000a900473ffffffffffffffffffffffffffffffffffffffff1681565b6000819050919050565b6110b08161109d565b82525050565b60006020820190506110cb60008301846110a7565b92915050565b6000604051905090565b600080fd5b600080fd5b6110ee8161109d565b81146110f957600080fd5b50565b60008135905061110b816110e5565b92915050565b600060208284031215611127576111266110db565b5b6000611135848285016110fc565b91505092915050565b600081519050919050565b600082825260208201905092915050565b60005b8381101561117857808201518184015260208101905061115d565b60008484015250505050565b6000601f19601f8301169050919050565b60006111a08261113e565b6111aa8185611149565b93506111ba81856020860161115a565b6111c381611184565b840191505092915050565b600060ff82169050919050565b6111e4816111ce565b82525050565b60008115159050919050565b6111ff816111ea565b82525050565b600060e08201905061121a600083018a6110a7565b61122760208301896110a7565b81810360408301526112398188611195565b905061124860608301876111db565b61125560808301866111db565b61126260a08301856111f6565b61126f60c08301846111f6565b98975050505050505050565b600073ffffffffffffffffffffffffffffffffffffffff82169050919050565b60006112a68261127b565b9050919050565b6112b68161129b565b82525050565b60006020820190506112d160008301846112ad565b92915050565b600080fd5b600080fd5b7f4e487b7100000000000000000000000000000000000000000000000000000000600052604160045260246000fd5b61131982611184565b810181811067ffffffffffffffff82111715611338576113376112e1565b5b80604052505050565b600061134b6110d1565b90506113578282611310565b919050565b600067ffffffffffffffff821115611377576113766112e1565b5b61138082611184565b9050602081019050919050565b82818337600083830152505050565b60006113af6113aa8461135c565b611341565b9050828152602081018484840111156113cb576113ca6112dc565b5b6113d684828561138d565b509392505050565b600082601f8301126113f3576113f26112d7565b5b813561140384826020860161139c565b91505092915050565b60008060408385031215611423576114226110db565b5b6000611431858286016110fc565b925050602083013567ffffffffffffffff811115611452576114516110e0565b5b61145e858286016113de565b9150509250929050565b6000806040838503121561147f5761147e6110db565b5b600061148d858286016110fc565b925050602061149e858286016110fc565b9150509250929050565b6114b18161129b565b81146114bc57600080fd5b50565b6000813590506114ce816114a8565b92915050565b6000602082840312156114ea576114e96110db565b5b60006114f8848285016114bf565b91505092915050565b600060208201905061151660008301846111f6565b92915050565b600060208201905061153160008301846111db565b92915050565b7f4e487b7100000000000000000000000000000000000000000000000000000000600052602260045260246000fd5b6000600282049050600182168061157e57607f821691505b60208210810361159157611590611537565b5b50919050565b7f4e6f7420636f6e74726163746f72000000000000000000000000000000000000600082015250565b60006115cd600e83611149565b91506115d882611597565b602082019050919050565b600060208201905081810360008301526115fc816115c0565b9050919050565b7f4e6f742063757272656e74206d696c6573746f6e650000000000000000000000600082015250565b6000611639601583611149565b915061164482611603565b602082019050919050565b600060208201905081810360008301526116688161162c565b9050919050565b60008190508160005260206000209050919050565b60006020601f8301049050919050565b600082821b905092915050565b6000600883026116d17fffffffffffffffffffffffffffffffffffffffffffffffffffffffffffffffff82611694565b6116db8683611694565b95508019841693508086168417925050509392505050565b6000819050919050565b600061171861171361170e8461109d565b6116f3565b61109d565b9050919050565b6000819050919050565b611732836116fd565b61174661173e8261171f565b8484546116a1565b825550505050565b600090565b61175b61174e565b611766818484611729565b505050565b5b8181101561178a5761177f600082611753565b60018101905061176c565b5050565b601f8211156117cf576117a08161166f565b6117a984611684565b810160208510156117b8578190505b6117cc6117c485611684565b83018261176b565b50505b505050565b600082821c905092915050565b60006117f2600019846008026117d4565b1980831691505092915050565b600061180b83836117e1565b9150826002028217905092915050565b6118248261113e565b67ffffffffffffffff81111561183d5761183c6112e1565b5b6118478254611566565b61185282828561178e565b600060209050601f8311600181146118855760008415611873578287015190505b61187d85826117ff565b8655506118e5565b601f1984166118938661166f565b60005b828110156118bb57848901518255600182019150602085019450602081019050611896565b868310156118d857848901516118d4601f8916826117e1565b8355505b6001600288020188555050505b505050505050565b600060408201905061190260008301856110a7565b81810360208301526119148184611195565b90509392505050565b7f4e6f7420617070726f7665720000000000000000000000000000000000000000600082015250565b6000611953600c83611149565b915061195e8261191d565b602082019050919050565b6000602082019050818103600083015261198281611946565b9050919050565b7f416c726561647920636f6d706c65746564000000000000000000000000000000600082015250565b60006119bf601183611149565b91506119ca82611989565b602082019050919050565b600060208201905081810360008301526119ee816119b2565b9050919050565b7f4e487b7100000000000000000000000000000000000000000000000000000000600052601160045260246000fd5b6000611a2f8261109d565b9150611a3a8361109d565b9250828201905080821115611a5257611a516119f5565b5b92915050565b6000604082019050611a6d60008301856110a7565b611a7a60208301846110a7565b9392505050565b7f4e6f7420656e6f75676820617070726f76616c73000000000000000000000000600082015250565b6000611ab7601483611149565b9150611ac282611a81565b602082019050919050565b60006020820190508181036000830152611ae681611aaa565b9050919050565b7f416c72656164792072656c656173656400000000000000000000000000000000600082015250565b6000611b23601083611149565b9150611b2e82611aed565b602082019050919050565b60006020820190508181036000830152611b5281611b16565b9050919050565b6000611b648261109d565b91507fffffffffffffffffffffffffffffffffffffffffffffffffffffffffffffffff8203611b9657611b956119f5565b5b600182019050919050565b7f50726f6f66206e6f74207375626d697474656400000000000000000000000000600082015250565b6000611bd7601383611149565b9150611be282611ba1565b602082019050919050565b60006020820190508181036000830152611c0681611bca565b9050919050565b7f416c726561647920617070726f76656400000000000000000000000000000000600082015250565b6000611c43601083611149565b9150611c4e82611c0d565b602082019050919050565b60006020820190508181036000830152611c7281611c36565b9050919050565b7f416c72656164792072656a656374656400000000000000000000000000000000600082015250565b6000611caf601083611149565b9150611cba82611c79565b602082019050919050565b60006020820190508181036000830152611cde81611ca2565b9050919050565b6000611cf0826111ce565b915060ff8203611d0357611d026119f5565b5b600182019050919050565b6000604082019050611d2360008301856110a7565b611d3060208301846112ad565b939250505056fea2646970667358221220d4f25d2c708f682054c0c6e2af6c261e4938cfa35152f8fbfaab5e099ef453b464736f6c63430008140033a2646970667358221220abff87bbd05ade1f6d6c8559c27ad57e785d846b4917f01271814b1928e210b864736f6c63430008140033",
  "linkReferences": {},
  "deployedLinkReferences": {}
}