{
  "_format": "hh-sol-artifact-1",
  "contractName": "Factory",
  "sourceName": "contracts/Factory.sol",
  "abi": [
    {
      "anonymous": false,
      "inputs": [
        {
          "indexed": false,
          "internalType": "address",
          "name": "projectAddress",
          "type": "address"
        },
        {
          "indexed": false,
          "internalType": "address",
          "name": "contractor",
          "type": "address"
        }
      ],
      "name": "ProjectCreated",
      "type": "event"
    },
    {
      "inputs": [
        {
          "internalType": "address",
          "name": "contractor",
          "type": "address"
        },
        {
          "internalType": "address[]",
          "name": "approvers",
          "type": "address[]"
        },
        {
          "internalType": "uint256[]",
          "name": "amounts",
          "type": "uint256[]"
        },
        {
          "internalType": "uint256[]",
          "name": "deadlines",
          "type": "uint256[]"
        },
        {
          "internalType": "uint8",
          "name": "threshold",
          "type": "uint8"
        }
      ],
      "name": "createProject",
      "outputs": [],
      "stateMutability": "nonpayable",
      "type": "function"
    },
    {
      "inputs": [],
      "name": "getProjects",
      "outputs": [
        {
          "internalType": "address[]",
          "name": "",
          "type": "address[]"
        }
      ],
      "stateMutability": "view",
      "type": "function"
    },
    {
      "inputs": [
        {
          "internalType": "uint256",
          "name": "",
          "type": "uint256"
        }
      ],
      "name": "projects",
      "outputs": [
        {
          "internalType": "address",
          "name": "",
          "type": "address"
        }
      ],
      "stateMutability": "view",
      "type": "function"
    }
  ],
  "bytecode": "0x608060405234801561001057600080fd5b50612fd2806100206000396000f3fe60806040523480156200001157600080fd5b5060043610620000465760003560e01c8063107046bd146200004b5780637441d8241462000081578063dcc6012814620000a1575b600080fd5b620000696004803603810190620000639190620002dd565b620000c3565b60405162000078919062000354565b60405180910390f35b6200009f60048036038101906200009991906200062b565b62000103565b005b620000ab620001f0565b604051620000ba9190620007de565b60405180910390f35b60008181548110620000d457600080fd5b906000526020600020016000915054906101000a900473ffffffffffffffffffffffffffffffffffffffff1681565b6000338686868686604051620001199062000280565b6200012a96959493929190620008e1565b604051809103906000f08015801562000147573d6000803e3d6000fd5b5090506000819080600181540180825580915050600190039060005260206000200160009091909190916101000a81548173ffffffffffffffffffffffffffffffffffffffff021916908373ffffffffffffffffffffffffffffffffffffffff1602179055507f8cb1f5e0b7508307e592a641586f535256dba226b02388100691c6133f65e22e8187604051620001e092919062000963565b60405180910390a1505050505050565b606060008054806020026020016040519081016040528092919081815260200182805480156200027657602002820191906000526020600020905b8160009054906101000a900473ffffffffffffffffffffffffffffffffffffffff1673ffffffffffffffffffffffffffffffffffffffff16815260200190600101908083116200022b575b5050505050905090565b61260c806200099183390190565b6000604051905090565b600080fd5b600080fd5b6000819050919050565b620002b781620002a2565b8114620002c357600080fd5b50565b600081359050620002d781620002ac565b92915050565b600060208284031215620002f657620002f562000298565b5b60006200030684828501620002c6565b91505092915050565b600073ffffffffffffffffffffffffffffffffffffffff82169050919050565b60006200033c826200030f565b9050919050565b6200034e816200032f565b82525050565b60006020820190506200036b600083018462000343565b92915050565b6200037c816200032f565b81146200038857600080fd5b50565b6000813590506200039c8162000371565b92915050565b600080fd5b6000601f19601f8301169050919050565b7f4e487b7100000000000000000000000000000000000000000000000000000000600052604160045260246000fd5b620003f282620003a7565b810181811067ffffffffffffffff82111715620004145762000413620003b8565b5b80604052505050565b6000620004296200028e565b9050620004378282620003e7565b919050565b600067ffffffffffffffff8211156200045a5762000459620003b8565b5b602082029050602081019050919050565b600080fd5b60006200048762000481846200043c565b6200041d565b90508083825260208201905060208402830185811115620004ad57620004ac6200046b565b5b835b81811015620004da5780620004c588826200038b565b845260208401935050602081019050620004af565b5050509392505050565b600082601f830112620004fc57620004fb620003a2565b5b81356200050e84826020860162000470565b91505092915050565b600067ffffffffffffffff821115620005355762000534620003b8565b5b602082029050602081019050919050565b60006200055d620005578462000517565b6200041d565b905080838252602082019050602084028301858111156200058357620005826200046b565b5b835b81811015620005b057806200059b8882620002c6565b84526020840193505060208101905062000585565b5050509392505050565b600082601f830112620005d257620005d1620003a2565b5b8135620005e484826020860162000546565b91505092915050565b600060ff82169050919050565b6200060581620005ed565b81146200061157600080fd5b50565b6000813590506200062581620005fa565b92915050565b600080600080600060a086880312156200064a576200064962000298565b5b60006200065a888289016200038b565b955050602086013567ffffffffffffffff8111156200067e576200067d6200029d565b5b6200068c88828901620004e4565b945050604086013567ffffffffffffffff811115620006b057620006af6200029d565b5b620006be88828901620005ba565b935050606086013567ffffffffffffffff811115620006e257620006e16200029d565b5b620006f088828901620005ba565b9250506080620007038882890162000614565b9150509295509295909350565b600081519050919050565b600082825260208201905092915050565b6000819050602082019050919050565b62000747816200032f565b82525050565b60006200075b83836200073c565b60208301905092915050565b6000602082019050919050565b6000620007818262000710565b6200078d81856200071b565b93506200079a836200072c565b8060005b83811015620007d1578151620007b588826200074d565b9750620007c28362000767565b9250506001810190506200079e565b5085935050505092915050565b60006020820190508181036000830152620007fa818462000774565b905092915050565b600081519050919050565b600082825260208201905092915050565b6000819050602082019050919050565b6200083981620002a2565b82525050565b60006200084d83836200082e565b60208301905092915050565b6000602082019050919050565b6000620008738262000802565b6200087f81856200080d565b93506200088c836200081e565b8060005b83811015620008c3578151620008a788826200083f565b9750620008b48362000859565b92505060018101905062000890565b5085935050505092915050565b620008db81620005ed565b82525050565b600060c082019050620008f8600083018962000343565b62000907602083018862000343565b81810360408301526200091b818762000774565b9050818103606083015262000931818662000866565b9050818103608083015262000947818562000866565b90506200095860a0830184620008d0565b979650505050505050565b60006040820190506200097a600083018562000343565b62000989602083018462000343565b939250505056fe60806040523480156200001157600080fd5b506040516200260c3803806200260c83398181016040528101906200003791906200069a565b81518351146200007e576040517f08c379a00000000000000000000000000000000000000000000000000000000081526004016200007590620007f4565b60405180910390fd5b856000806101000a81548173ffffffffffffffffffffffffffffffffffffffff021916908373ffffffffffffffffffffffffffffffffffffffff16021790555084600160006101000a81548173ffffffffffffffffffffffffffffffffffffffff021916908373ffffffffffffffffffffffffffffffffffffffff160217905550836005908051906020019062000117929190620002af565b5080600460006101000a81548160ff021916908360ff1602179055508251600881905550600080600090505b600854811015620002015784818151811062000164576200016362000816565b5b602002602001015160096000838152602001908152602001600020600001819055508381815181106200019c576200019b62000816565b5b60200260200101516009600083815260200190815260200160002060010181905550848181518110620001d457620001d362000816565b5b602002602001015182620001e9919062000874565b91508080620001f890620008af565b91505062000143565b508060028190555060005b8551811015620002a15760016006600088848151811062000232576200023162000816565b5b602002602001015173ffffffffffffffffffffffffffffffffffffffff1673ffffffffffffffffffffffffffffffffffffffff16815260200190815260200160002060006101000a81548160ff02191690831515021790555080806200029890620008af565b9150506200020c565b5050505050505050620008fc565b8280548282559060005260206000209081019282156200032b579160200282015b828111156200032a5782518260006101000a81548173ffffffffffffffffffffffffffffffffffffffff021916908373ffffffffffffffffffffffffffffffffffffffff16021790555091602001919060010190620002d0565b5b5090506200033a91906200033e565b5090565b5b80821115620003595760008160009055506001016200033f565b5090565b6000604051905090565b600080fd5b600080fd5b600073ffffffffffffffffffffffffffffffffffffffff82169050919050565b60006200039e8262000371565b9050919050565b620003b08162000391565b8114620003bc57600080fd5b50565b600081519050620003d081620003a5565b92915050565b600080fd5b6000601f19601f8301169050919050565b7f4e487b7100000000000000000000000000000000000000000000000000000000600052604160045260246000fd5b6200042682620003db565b810181811067ffffffffffffffff82111715620004485762000447620003ec565b5b80604052505050565b60006200045d6200035d565b90506200046b82826200041b565b919050565b600067ffffffffffffffff8211156200048e576200048d620003ec565b5b602082029050602081019050919050565b600080fd5b6000620004bb620004b58462000470565b62000451565b90508083825260208201905060208402830185811115620004e157620004e06200049f565b5b835b818110156200050e5780620004f98882620003bf565b845260208401935050602081019050620004e3565b5050509392505050565b600082601f83011262000530576200052f620003d6565b5b815162000542848260208601620004a4565b91505092915050565b600067ffffffffffffffff821115620005695762000568620003ec565b5b602082029050602081019050919050565b6000819050919050565b6200058f816200057a565b81146200059b57600080fd5b50565b600081519050620005af8162000584565b92915050565b6000620005cc620005c6846200054b565b62000451565b90508083825260208201905060208402830185811115620005f257620005f16200049f565b5b835b818110156200061f57806200060a88826200059e565b845260208401935050602081019050620005f4565b5050509392505050565b600082601f830112620006415762000640620003d6565b5b815162000653848260208601620005b5565b91505092915050565b600060ff82169050919050565b62000674816200065c565b81146200068057600080fd5b50565b600081519050620006948162000669565b92915050565b60008060008060008060c08789031215620006ba57620006b962000367565b5b6000620006ca89828a01620003bf565b9650506020620006dd89828a01620003bf565b955050604087015167ffffffffffffffff8111156200070157620007006200036c565b5b6200070f89828a0162000518565b945050606087015167ffffffffffffffff8111156200073357620007326200036c565b5b6200074189828a0162000629565b935050608087015167ffffffffffffffff8111156200076557620007646200036c565b5b6200077389828a0162000629565b92505060a06200078689828a0162000683565b9150509295509295509295565b600082825260208201905092915050565b7f496e76616c696420696e70757400000000000000000000000000000000000000600082015250565b6000620007dc600d8362000793565b9150620007e982620007a4565b602082019050919050565b600060208201905081810360008301526200080f81620007cd565b9050919050565b7f4e487b7100000000000000000000000000000000000000000000000000000000600052603260045260246000fd5b7f4e487b7100000000000000000000000000000000000000000000000000000000600052601160045260246000fd5b600062000881826200057a565b91506200088e836200057a565b9250828201905080821115620008a957620008a862000845565b5b92915050565b6000620008bc826200057a565b91507fffffffffffffffffffffffffffffffffffffffffffffffffffffffffffffffff8203620008f157620008f062000845565b5b600182019050919050565b611d00806200090c6000396000f3fe608060405234801561001057600080fd5b50600436106101005760003560e01c8063968ed60011610097578063caaed30211610066578063caaed3021461028f578063d3650fb8146102ab578063e89e4ed6146102db578063fbfd20451461031157610100565b8063968ed60014610219578063b030481314610237578063b48c0d2614610255578063c438b40f1461027357610100565b80632d1fdef6116100d35780632d1fdef6146101935780634d68282f146101af5780636d218e48146101cb5780637d0eef61146101fb57610100565b80630681ca55146101055780632442e1cb146101235780632672f526146101595780632af0051014610177575b600080fd5b61010d61032f565b60405161011a9190611049565b60405180910390f35b61013d600480360381019061013891906110a4565b610335565b6040516101509796959493929190611198565b60405180910390f35b610161610453565b60405161016e919061124f565b60405180910390f35b610191600480360381019061018c919061139f565b610477565b005b6101ad60048036038101906101a891906113fb565b61060b565b005b6101c960048036038101906101c491906110a4565b61075d565b005b6101e560048036038101906101e09190611467565b6108c2565b6040516101f29190611494565b60405180910390f35b6102036108e2565b60405161021091906114af565b60405180910390f35b6102216108f5565b60405161022e9190611049565b60405180910390f35b61023f6108fb565b60405161024c9190611049565b60405180910390f35b61025d610901565b60405161026a9190611049565b60405180910390f35b61028d600480360381019061028891906110a4565b610907565b005b6102a960048036038101906102a491906110a4565b610bea565b005b6102c560048036038101906102c091906110a4565b610ecd565b6040516102d2919061124f565b60405180910390f35b6102f560048036038101906102f091906110a4565b610f0c565b6040516103089796959493929190611198565b60405180910390f35b61031961100a565b604051610326919061124f565b60405180910390f35b60085481565b60008060606000806000806000600960008a8152602001908152602001600020905080600001548160010154826002018360030160009054906101000a900460ff168460030160019054906101000a900460ff168560030160029054906101000a900460ff168660030160039054906101000a900460ff168480546103b9906114f9565b80601f01602080910402602001604051908101604052809291908181526020018280546103e5906114f9565b80156104325780601f1061040757610100808354040283529160200191610432565b820191906000526020600020905b81548152906001019060200180831161041557829003601f168201915b50505050509450975097509750975097509750975050919395979092949650565b60008054906101000a900473ffffffffffffffffffffffffffffffffffffffff1681565b600160009054906101000a900473ffffffffffffffffffffffffffffffffffffffff1673ffffffffffffffffffffffffffffffffffffffff163373ffffffffffffffffffffffffffffffffffffffff1614610507576040517f08c379a00000000000000000000000000000000000000000000000000000000081526004016104fe90611576565b60405180910390fd5b600754821461054b576040517f08c379a0000000000000000000000000000000000000000000000000000000008152600401610542906115e2565b60405180910390fd5b600060096000848152602001908152602001600020905060008160030160006101000a81548160ff021916908360ff16021790555060008160030160016101000a81548160ff021916908360ff160217905550818160020190816105af91906117ae565b5060018160030160026101000a81548160ff0219169083151502179055507fc577bdeb8da1059fec56a8d1554e25846f18ebf046c214b145cac25f76bda35083836040516105fe929190611880565b60405180910390a1505050565b600660003373ffffffffffffffffffffffffffffffffffffffff1673ffffffffffffffffffffffffffffffffffffffff16815260200190815260200160002060009054906101000a900460ff16610697576040517f08c379a000000000000000000000000000000000000000000000000000000000815260040161068e906118fc565b60405180910390fd5b60006009600084815260200190815260200160002090508060030160039054906101000a900460ff1615610700576040517f08c379a00000000000000000000000000000000000000000000000000000000081526004016106f790611968565b60405180910390fd5b8181600101600082825461071491906119b7565b925050819055507f073d5fd87a7e0c2a384727f9aab2e84826370623aba582638b425a417e799a2c8382600101546040516107509291906119eb565b60405180910390a1505050565b6000600960008381526020019081526020016000209050600460009054906101000a900460ff1660ff168160030160009054906101000a900460ff1660ff1610156107dd576040517f08c379a00000000000000000000000000000000000000000000000000000000081526004016107d490611a60565b60405180910390fd5b8060030160039054906101000a900460ff161561082f576040517f08c379a000000000000000000000000000000000000000000000000000000000815260040161082690611acc565b60405180910390fd5b60018160030160036101000a81548160ff02191690831515021790555080600001546003600082825461086291906119b7565b925050819055506007600081548092919061087c90611aec565b91905055507f80230996023d69b50793fa73f1919127c9d8e741d3989743c479169f22e7a2888282600001546040516108b69291906119eb565b60405180910390a15050565b60066020528060005260406000206000915054906101000a900460ff1681565b600460009054906101000a900460ff1681565b60025481565b60075481565b60035481565b600660003373ffffffffffffffffffffffffffffffffffffffff1673ffffffffffffffffffffffffffffffffffffffff16815260200190815260200160002060009054906101000a900460ff16610993576040517f08c379a000000000000000000000000000000000000000000000000000000000815260040161098a906118fc565b60405180910390fd5b60006009600083815260200190815260200160002090508060030160029054906101000a900460ff166109fb576040517f08c379a00000000000000000000000000000000000000000000000000000000081526004016109f290611b80565b60405180910390fd5b8060040160003373ffffffffffffffffffffffffffffffffffffffff1673ffffffffffffffffffffffffffffffffffffffff16815260200190815260200160002060009054906101000a900460ff1615610a8a576040517f08c379a0000000000000000000000000000000000000000000000000000000008152600401610a8190611bec565b60405180910390fd5b8060050160003373ffffffffffffffffffffffffffffffffffffffff1673ffffffffffffffffffffffffffffffffffffffff16815260200190815260200160002060009054906101000a900460ff1615610b19576040517f08c379a0000000000000000000000000000000000000000000000000000000008152600401610b1090611c58565b60405180910390fd5b60018160040160003373ffffffffffffffffffffffffffffffffffffffff1673ffffffffffffffffffffffffffffffffffffffff16815260200190815260200160002060006101000a81548160ff02191690831515021790555080600301600081819054906101000a900460ff1680929190610b9490611c78565b91906101000a81548160ff021916908360ff160217905550507f553edf5d6a50b30b5e1faa5428a9962e9b3af648e5ab3791bf7e79ccb10f7f558233604051610bde929190611ca1565b60405180910390a15050565b600660003373ffffffffffffffffffffffffffffffffffffffff1673ffffffffffffffffffffffffffffffffffffffff16815260200190815260200160002060009054906101000a900460ff16610c76576040517f08c379a0000000000000000000000000000000000000000000000000000000008152600401610c6d906118fc565b60405180910390fd5b60006009600083815260200190815260200160002090508060030160029054906101000a900460ff16610cde576040517f08c379a0000000000000000000000000000000000000000000000000000000008152600401610cd590611b80565b60405180910390fd5b8060050160003373ffffffffffffffffffffffffffffffffffffffff1673ffffffffffffffffffffffffffffffffffffffff16815260200190815260200160002060009054906101000a900460ff1615610d6d576040517f08c379a0000000000000000000000000000000000000000000000000000000008152600401610d6490611c58565b60405180910390fd5b8060040160003373ffffffffffffffffffffffffffffffffffffffff1673ffffffffffffffffffffffffffffffffffffffff16815260200190815260200160002060009054906101000a900460ff1615610dfc576040517f08c379a0000000000000000000000000000000000000000000000000000000008152600401610df390611bec565b60405180910390fd5b60018160050160003373ffffffffffffffffffffffffffffffffffffffff1673ffffffffffffffffffffffffffffffffffffffff16815260200190815260200160002060006101000a81548160ff02191690831515021790555080600301600181819054906101000a900460ff1680929190610e7790611c78565b91906101000a81548160ff021916908360ff160217905550507f41063fc3dca02ae91075a3d62ddbb87d2571bc1243e63e411b756b53e9ba3fdb8233604051610ec1929190611ca1565b60405180910390a15050565b60058181548110610edd57600080fd5b906000526020600020016000915054906101000a900473ffffffffffffffffffffffffffffffffffffffff1681565b6009602052806000526040600020600091509050806000015490806001015490806002018054610f3b906114f9565b80601f0160208091040260200160405190810160405280929190818152602001828054610f67906114f9565b8015610fb45780601f10610f8957610100808354040283529160200191610fb4565b820191906000526020600020905b815481529060010190602001808311610f9757829003601f168201915b5050505050908060030160009054906101000a900460ff16908060030160019054906101000a900460ff16908060030160029054906101000a900460ff16908060030160039054906101000a900460ff16905087565b600160009054906101000a900473ffffffffffffffffffffffffffffffffffffffff1681565b6000819050919050565b61104381611030565b82525050565b600060208201905061105e600083018461103a565b92915050565b6000604051905090565b600080fd5b600080fd5b61108181611030565b811461108c57600080fd5b50565b60008135905061109e81611078565b92915050565b6000602082840312156110ba576110b961106e565b5b60006110c88482850161108f565b91505092915050565b600081519050919050565b600082825260208201905092915050565b60005b8381101561110b5780820151818401526020810190506110f0565b60008484015250505050565b6000601f19601f8301169050919050565b6000611133826110d1565b61113d81856110dc565b935061114d8185602086016110ed565b61115681611117565b840191505092915050565b600060ff82169050919050565b61117781611161565b82525050565b60008115159050919050565b6111928161117d565b82525050565b600060e0820190506111ad600083018a61103a565b6111ba602083018961103a565b81810360408301526111cc8188611128565b90506111db606083018761116e565b6111e8608083018661116e565b6111f560a0830185611189565b61120260c0830184611189565b98975050505050505050565b600073ffffffffffffffffffffffffffffffffffffffff82169050919050565b60006112398261120e565b9050919050565b6112498161122e565b82525050565b60006020820190506112646000830184611240565b92915050565b600080fd5b600080fd5b7f4e487b7100000000000000000000000000000000000000000000000000000000600052604160045260246000fd5b6112ac82611117565b810181811067ffffffffffffffff821117156112cb576112ca611274565b5b80604052505050565b60006112de611064565b90506112ea82826112a3565b919050565b600067ffffffffffffffff82111561130a57611309611274565b5b61131382611117565b9050602081019050919050565b82818337600083830152505050565b600061134261133d846112ef565b6112d4565b90508281526020810184848401111561135e5761135d61126f565b5b611369848285611320565b509392505050565b600082601f8301126113865761138561126a565b5b813561139684826020860161132f565b91505092915050565b600080604083850312156113b6576113b561106e565b5b60006113c48582860161108f565b925050602083013567ffffffffffffffff8111156113e5576113e4611073565b5b6113f185828601611371565b9150509250929050565b600080604083850312156114125761141161106e565b5b60006114208582860161108f565b92505060206114318582860161108f565b9150509250929050565b6114448161122e565b811461144f57600080fd5b50565b6000813590506114618161143b565b92915050565b60006020828403121561147d5761147c61106e565b5b600061148b84828501611452565b91505092915050565b60006020820190506114a96000830184611189565b92915050565b60006020820190506114c4600083018461116e565b92915050565b7f4e487b7100000000000000000000000000000000000000000000000000000000600052602260045260246000fd5b6000600282049050600182168061151157607f821691505b602082108103611524576115236114ca565b5b50919050565b7f4e6f7420636f6e74726163746f72000000000000000000000000000000000000600082015250565b6000611560600e836110dc565b915061156b8261152a565b602082019050919050565b6000602082019050818103600083015261158f81611553565b9050919050565b7f4e6f742063757272656e74206d696c6573746f6e650000000000000000000000600082015250565b60006115cc6015836110dc565b91506115d782611596565b602082019050919050565b600060208201905081810360008301526115fb816115bf565b9050919050565b60008190508160005260206000209050919050565b60006020601f8301049050919050565b600082821b905092915050565b6000600883026116647fffffffffffffffffffffffffffffffffffffffffffffffffffffffffffffffff82611627565b61166e8683611627565b95508019841693508086168417925050509392505050565b6000819050919050565b60006116ab6116a66116a184611030565b611686565b611030565b9050919050565b6000819050919050565b6116c583611690565b6116d96116d1826116b2565b848454611634565b825550505050565b600090565b6116ee6116e1565b6116f98184846116bc565b505050565b5b8181101561171d576117126000826116e6565b6001810190506116ff565b5050565b601f8211156117625761173381611602565b61173c84611617565b8101602085101561174b578190505b61175f61175785611617565b8301826116fe565b50505b505050565b600082821c905092915050565b600061178560001984600802611767565b1980831691505092915050565b600061179e8383611774565b9150826002028217905092915050565b6117b7826110d1565b67ffffffffffffffff8111156117d0576117cf611274565b5b6117da82546114f9565b6117e5828285611721565b600060209050601f8311600181146118185760008415611806578287015190505b6118108582611792565b865550611878565b601f19841661182686611602565b60005b8281101561184e57848901518255600182019150602085019450602081019050611829565b8683101561186b5784890151611867601f891682611774565b8355505b6001600288020188555050505b505050505050565b6000604082019050611895600083018561103a565b81810360208301526118a78184611128565b90509392505050565b7f4e6f7420617070726f7665720000000000000000000000000000000000000000600082015250565b60006118e6600c836110dc565b91506118f1826118b0565b602082019050919050565b60006020820190508181036000830152611915816118d9565b9050919050565b7f416c726561647920636f6d706c65746564000000000000000000000000000000600082015250565b60006119526011836110dc565b915061195d8261191c565b602082019050919050565b6000602082019050818103600083015261198181611945565b9050919050565b7f4e487b7100000000000000000000000000000000000000000000000000000000600052601160045260246000fd5b60006119c282611030565b91506119cd83611030565b92508282019050808211156119e5576119e4611988565b5b92915050565b6000604082019050611a00600083018561103a565b611a0d602083018461103a565b9392505050565b7f4e6f7420656e6f75676820617070726f76616c73000000000000000000000000600082015250565b6000611a4a6014836110dc565b9150611a5582611a14565b602082019050919050565b60006020820190508181036000830152611a7981611a3d565b9050919050565b7f416c72656164792072656c656173656400000000000000000000000000000000600082015250565b6000611ab66010836110dc565b9150611ac182611a80565b602082019050919050565b60006020820190508181036000830152611ae581611aa9565b9050919050565b6000611af782611030565b91507fffffffffffffffffffffffffffffffffffffffffffffffffffffffffffffffff8203611b2957611b28611988565b5b600182019050919050565b7f50726f6f66206e6f74207375626d697474656400000000000000000000000000600082015250565b6000611b6a6013836110dc565b9150611b7582611b34565b602082019050919050565b60006020820190508181036000830152611b9981611b5d565b9050919050565b7f416c726561647920617070726f76656400000000000000000000000000000000600082015250565b6000611bd66010836110dc565b9150611be182611ba0565b602082019050919050565b60006020820190508181036000830152611c0581611bc9565b9050919050565b7f416c72656164792072656a656374656400000000000000000000000000000000600082015250565b6000611c426010836110dc565b9150611c4d82611c0c565b602082019050919050565b60006020820190508181036000830152611c7181611c35565b9050919050565b6000611c8382611161565b915060ff8203611c9657611c95611988565b5b600182019050919050565b6000604082019050611cb6600083018561103a565b611cc36020830184611240565b939250505056fea2646970667358221220d4c4922f1d794bd8c3237c4f3d0d775b0b2dabedec55991b0d2bc1806f2d1b4464736f6c63430008140033a2646970667358221220a861f350e216c6e475184bc0a02e1bb4bd094997419481440c87db0cdb52d3fa64736f6c63430008140033",
  "linkReferences": {},
  "deployedLinkReferences": {}
}