{
  "_format": "hh-sol-artifact-1",
  "contractName": "ProjectEscrow",
  "sourceName": "contracts/ProjectEscrow.sol",
  "abi": [
    {
      "inputs": [
        {
          "internalType": "address",
          "name": "_government",
          "type": "address"
        },
        {
          "internalType": "address",
          "name": "_contractor",
          "type": "address"
        },
        {
          "internalType": "address[]",
          "name": "_approvers",
          "type": "address[]"
        },
        {
          "internalType": "uint256[]",
          "name": "_amounts",
          "type": "uint256[]"
        },
        {
          "internalType": "uint256[]",
          "name": "_deadlines",
          "type": "uint256[]"
        },
        {
          "internalType": "uint8",
          "name": "_threshold",
          "type": "uint8"
        }
      ],
      "stateMutability": "nonpayable",
      "type": "constructor"
    },
    {
      "anonymous": false,
      "inputs": [
        {
          "indexed": false,
          "internalType": "uint256",
          "name": "milestoneId",
          "type": "uint256"
        },
        {
          "indexed": false,
          "internalType": "uint256",
          "name": "newDeadline",
          "type": "uint256"
        }
      ],
      "name": "DeadlineExtended",
      "type": "event"
    },
    {
      "anonymous": false,
      "inputs": [
        {
          "indexed": false,
          "internalType": "uint256",
          "name": "milestoneId",
          "type": "uint256"
        },
        {
          "indexed": false,
          "internalType": "uint256",
          "name": "amount",
          "type": "uint256"
        }
      ],
      "name": "FundsReleased",
      "type": "event"
    },
    {
      "anonymous": false,
      "inputs": [
        {
          "indexed": false,
          "internalType": "uint256",
          "name": "milestoneId",
          "type": "uint256"
        },
        {
          "indexed": false,
          "internalType": "address",
          "name": "approver",
          "type": "address"
        }
      ],
      "name": "MilestoneApproved",
      "type": "event"
    },
    {
      "anonymous": false,
      "inputs": [
        {
          "indexed": false,
          "internalType": "uint256",
          "name": "milestoneId",
          "type": "uint256"
        },
        {
          "indexed": false,
          "internalType": "address",
          "name": "approver",
          "type": "address"
        }
      ],
      "name": "MilestoneRejected",
      "type": "event"
    },
    {
      "anonymous": false,
      "inputs": [
        {
          "indexed": false,
          "internalType": "uint256",
          "name": "milestoneId",
          "type": "uint256"
        },
        {
          "indexed": false,
          "internalType": "string",
          "name": "ipfsHash",
          "type": "string"
        }
      ],
      "name": "ProofSubmitted",
      "type": "event"
    },
    {
      "inputs": [],
      "name": "approvalThreshold",
      "outputs": [
        {
          "internalType": "uint8",
          "name": "",
          "type": "uint8"
        }
      ],
      "stateMutability": "view",
      "type": "function"
    },
    {
      "inputs": [
        {
          "internalType": "uint256",
          "name": "id",
          "type": "uint256"
        }
      ],
      "name": "approveMilestone",
      "outputs": [],
      "stateMutability": "nonpayable",
      "type": "function"
    },
    {
      "inputs": [
        {
          "internalType": "uint256",
          "name": "",
          "type": "uint256"
        }
      ],
      "name": "approvers",
      "outputs": [
        {
          "internalType": "address",
          "name": "",
          "type": "address"
        }
      ],
      "stateMutability": "view",
      "type": "function"
    },
    {
      "inputs": [],
      "name": "contractor",
      "outputs": [
        {
          "internalType": "address",
          "name": "",
          "type": "address"
        }
      ],
      "stateMutability": "view",
      "type": "function"
    },
    {
      "inputs": [],
      "name": "currentMilestone",
      "outputs": [
        {
          "internalType": "uint256",
          "name": "",
          "type": "uint256"
        }
      ],
      "stateMutability": "view",
      "type": "function"
    },
    {
      "inputs": [
        {
          "internalType": "uint256",
          "name": "id",
          "type": "uint256"
        },
        {
          "internalType": "uint256",
          "name": "extraTime",
          "type": "uint256"
        }
      ],
      "name": "extendDeadline",
      "outputs": [],
      "stateMutability": "nonpayable",
      "type": "function"
    },
    {
      "inputs": [
        {
          "internalType": "uint256",
          "name": "id",
          "type": "uint256"
        }
      ],
      "name": "getMilestone",
      "outputs": [
        {
          "internalType": "uint256",
          "name": "amount",
          "type": "uint256"
        },
        {
          "internalType": "uint256",
          "name": "deadline",
          "type": "uint256"
        },
        {
          "internalType": "string",
          "name": "ipfsHash",
          "type": "string"
        },
        {
          "internalType": "uint8",
          "name": "approvals",
          "type": "uint8"
        },
        {
          "internalType": "uint8",
          "name": "rejections",
          "type": "uint8"
        },
        {
          "internalType": "bool",
          "name": "submitted",
          "type": "bool"
        },
        {
          "internalType": "bool",
          "name": "released",
          "type": "bool"
        }
      ],
      "stateMutability": "view",
      "type": "function"
    },
    {
      "inputs": [],
      "name": "government",
      "outputs": [
        {
          "internalType": "address",
          "name": "",
          "type": "address"
        }
      ],
      "stateMutability": "view",
      "type": "function"
    },
    {
      "inputs": [
        {
          "internalType": "address",
          "name": "",
          "type": "address"
        }
      ],
      "name": "isApprover",
      "outputs": [
        {
          "internalType": "bool",
          "name": "",
          "type": "bool"
        }
      ],
      "stateMutability": "view",
      "type": "function"
    },
    {
      "inputs": [],
      "name": "milestoneCount",
      "outputs": [
        {
          "internalType": "uint256",
          "name": "",
          "type": "uint256"
        }
      ],
      "stateMutability": "view",
      "type": "function"
    },
    {
      "inputs": [
        {
          "internalType": "uint256",
          "name": "",
          "type": "uint256"
        }
      ],
      "name": "milestones",
      "outputs": [
        {
          "internalType": "uint256",
          "name": "amount",
          "type": "uint256"
        },
        {
          "internalType": "uint256",
          "name": "deadline",
          "type": "uint256"
        },
        {
          "internalType": "string",
          "name": "ipfsHash",
          "type": "string"
        },
        {
          "internalType": "uint256",
          "name": "submissionRound",
          "type": "uint256"
        },
        {
          "internalType": "uint8",
          "name": "approvals",
          "type": "uint8"
        },
        {
          "internalType": "uint8",
          "name": "rejections",
          "type": "uint8"
        },
        {
          "internalType": "bool",
          "name": "submitted",
          "type": "bool"
        },
        {
          "internalType": "bool",
          "name": "released",
          "type": "bool"
        }
      ],
      "stateMutability": "view",
      "type": "function"
    },
    {
      "inputs": [
        {
          "internalType": "uint256",
          "name": "id",
          "type": "uint256"
        }
      ],
      "name": "rejectMilestone",
      "outputs": [],
      "stateMutability": "nonpayable",
      "type": "function"
    },
    {
      "inputs": [
        {
          "internalType": "uint256",
          "name": "id",
          "type": "uint256"
        }
      ],
      "name": "releaseFunds",
      "outputs": [],
      "stateMutability": "nonpayable",
      "type": "function"
    },
    {
      "inputs": [],
      "name": "releasedFunds",
      "outputs": [
        {
          "internalType": "uint256",
          "name": "",
          "type": "uint256"
        }
      ],
      "stateMutability": "view",
      "type": "function"
    },
    {
      "inputs": [
        {
          "internalType": "uint256",
          "name": "id",
          "type": "uint256"
        },
        {
          "internalType": "string",
          "name": "hash",
          "type": "string"
        }
      ],
      "name": "submitProof",
      "outputs": [],
      "stateMutability": "nonpayable",
      "type": "function"
    },
    {
      "inputs": [],
      "name": "totalFunds",
      "outputs": [
        {
          "internalType": "uint256",
          "name": "",
          "type": "uint256"
        }
      ],
      "stateMutability": "view",
      "type": "function"
    }
  ],
  "bytecode": "0x60806040523480156200001157600080fd5b506040516200271b3803806200271b83398181016040528101906200003791906200069a565b81518351146200007e576040517f08c379a00000000000000000000000000000000000000000000000000000000081526004016200007590620007f4565b60405180910390fd5b856000806101000a81548173ffffffffffffffffffffffffffffffffffffffff021916908373ffffffffffffffffffffffffffffffffffffffff16021790555084600160006101000a81548173ffffffffffffffffffffffffffffffffffffffff021916908373ffffffffffffffffffffffffffffffffffffffff160217905550836005908051906020019062000117929190620002af565b5080600460006101000a81548160ff021916908360ff1602179055508251600881905550600080600090505b600854811015620002015784818151811062000164576200016362000816565b5b602002602001015160096000838152602001908152602001600020600001819055508381815181106200019c576200019b62000816565b5b60200260200101516009600083815260200190815260200160002060010181905550848181518110620001d457620001d362000816565b5b602002602001015182620001e9919062000874565b91508080620001f890620008af565b91505062000143565b508060028190555060005b8551811015620002a15760016006600088848151811062000232576200023162000816565b5b602002602001015173ffffffffffffffffffffffffffffffffffffffff1673ffffffffffffffffffffffffffffffffffffffff16815260200190815260200160002060006101000a81548160ff02191690831515021790555080806200029890620008af565b9150506200020c565b5050505050505050620008fc565b8280548282559060005260206000209081019282156200032b579160200282015b828111156200032a5782518260006101000a81548173ffffffffffffffffffffffffffffffffffffffff021916908373ffffffffffffffffffffffffffffffffffffffff16021790555091602001919060010190620002d0565b5b5090506200033a91906200033e565b5090565b5b80821115620003595760008160009055506001016200033f565b5090565b6000604051905090565b600080fd5b600080fd5b600073ffffffffffffffffffffffffffffffffffffffff82169050919050565b60006200039e8262000371565b9050919050565b620003b08162000391565b8114620003bc57600080fd5b50565b600081519050620003d081620003a5565b92915050565b600080fd5b6000601f19601f8301169050919050565b7f4e487b7100000000000000000000000000000000000000000000000000000000600052604160045260246000fd5b6200042682620003db565b810181811067ffffffffffffffff82111715620004485762000447620003ec565b5b80604052505050565b60006200045d6200035d565b90506200046b82826200041b565b919050565b600067ffffffffffffffff8211156200048e576200048d620003ec565b5b602082029050602081019050919050565b600080fd5b6000620004bb620004b58462000470565b62000451565b90508083825260208201905060208402830185811115620004e157620004e06200049f565b5b835b818110156200050e5780620004f98882620003bf565b845260208401935050602081019050620004e3565b5050509392505050565b600082601f83011262000530576200052f620003d6565b5b815162000542848260208601620004a4565b91505092915050565b600067ffffffffffffffff821115620005695762000568620003ec565b5b602082029050602081019050919050565b6000819050919050565b6200058f816200057a565b81146200059b57600080fd5b50565b600081519050620005af8162000584565b92915050565b6000620005cc620005c6846200054b565b62000451565b90508083825260208201905060208402830185811115620005f257620005f16200049f565b5b835b818110156200061f57806200060a88826200059e565b845260208401935050602081019050620005f4565b5050509392505050565b600082601f830112620006415762000640620003d6565b5b815162000653848260208601620005b5565b91505092915050565b600060ff82169050919050565b62000674816200065c565b81146200068057600080fd5b50565b600081519050620006948162000669565b92915050565b60008060008060008060c08789031215620006ba57620006b962000367565b5b6000620006ca89828a01620003bf565b9650506020620006dd89828a01620003bf565b955050604087015167ffffffffffffffff8111156200070157620007006200036c565b5b6200070f89828a0162000518565b945050606087015167ffffffffffffffff8111156200073357620007326200036c565b5b6200074189828a0162000629565b935050608087015167ffffffffffffffff8111156200076557620007646200036c565b5b6200077389828a0162000629565b92505060a06200078689828a0162000683565b9150509295509295509295565b600082825260208201905092915050565b7f496e76616c696420696e70757400000000000000000000000000000000000000600082015250565b6000620007dc600d8362000793565b9150620007e982620007a4565b602082019050919050565b600060208201905081810360008301526200080f81620007cd565b9050919050565b7f4e487b7100000000000000000000000000000000000000000000000000000000600052603260045260246000fd5b7f4e487b7100000000000000000000000000000000000000000000000000000000600052601160045260246000fd5b600062000881826200057a565b91506200088e836200057a565b9250828201905080821115620008a957620008a862000845565b5b92915050565b6000620008bc826200057a565b91507fffffffffffffffffffffffffffffffffffffffffffffffffffffffffffffffff8203620008f157620008f062000845565b5b600182019050919050565b611e0f806200090c6000396000f3fe608060405234801561001057600080fd5b50600436106101005760003560e01c8063968ed60011610097578063caaed30211610066578063caaed3021461028f578063d3650fb8146102ab578063e89e4ed6146102db578063fbfd20451461031257610100565b8063968ed60014610219578063b030481314610237578063b48c0d2614610255578063c438b40f1461027357610100565b80632d1fdef6116100d35780632d1fdef6146101935780634d68282f146101af5780636d218e48146101cb5780637d0eef61146101fb57610100565b80630681ca55146101055780632442e1cb146101235780632672f526146101595780632af0051014610177575b600080fd5b61010d610330565b60405161011a91906110d3565b60405180910390f35b61013d6004803603810190610138919061112e565b610336565b6040516101509796959493929190611222565b60405180910390f35b610161610454565b60405161016e91906112d9565b60405180910390f35b610191600480360381019061018c9190611429565b610478565b005b6101ad60048036038101906101a89190611485565b610626565b005b6101c960048036038101906101c4919061112e565b6106c0565b005b6101e560048036038101906101e091906114f1565b6106cc565b6040516101f2919061151e565b60405180910390f35b6102036106ec565b6040516102109190611539565b60405180910390f35b6102216106ff565b60405161022e91906110d3565b60405180910390f35b61023f610705565b60405161024c91906110d3565b60405180910390f35b61025d61070b565b60405161026a91906110d3565b60405180910390f35b61028d6004803603810190610288919061112e565b610711565b005b6102a960048036038101906102a4919061112e565b610a28565b005b6102c560048036038101906102c0919061112e565b610d26565b6040516102d291906112d9565b60405180910390f35b6102f560048036038101906102f0919061112e565b610d65565b604051610309989796959493929190611554565b60405180910390f35b61031a610e69565b60405161032791906112d9565b60405180910390f35b60085481565b60008060606000806000806000600960008a8152602001908152602001600020905080600001548160010154826002018360040160009054906101000a900460ff168460040160019054906101000a900460ff168560040160029054906101000a900460ff168660040160039054906101000a900460ff168480546103ba90611608565b80601f01602080910402602001604051908101604052809291908181526020018280546103e690611608565b80156104335780601f1061040857610100808354040283529160200191610433565b820191906000526020600020905b81548152906001019060200180831161041657829003601f168201915b50505050509450975097509750975097509750975050919395979092949650565b60008054906101000a900473ffffffffffffffffffffffffffffffffffffffff1681565b600160009054906101000a900473ffffffffffffffffffffffffffffffffffffffff1673ffffffffffffffffffffffffffffffffffffffff163373ffffffffffffffffffffffffffffffffffffffff1614610508576040517f08c379a00000000000000000000000000000000000000000000000000000000081526004016104ff90611685565b60405180910390fd5b600754821461054c576040517f08c379a0000000000000000000000000000000000000000000000000000000008152600401610543906116f1565b60405180910390fd5b600060096000848152602001908152602001600020905080600301600081548092919061057890611740565b919050555060008160040160006101000a81548160ff021916908360ff16021790555060008160040160016101000a81548160ff021916908360ff160217905550818160020190816105ca9190611934565b5060018160040160026101000a81548160ff0219169083151502179055507fc577bdeb8da1059fec56a8d1554e25846f18ebf046c214b145cac25f76bda3508383604051610619929190611a06565b60405180910390a1505050565b600660003373ffffffffffffffffffffffffffffffffffffffff1673ffffffffffffffffffffffffffffffffffffffff16815260200190815260200160002060009054906101000a900460ff166106b2576040517f08c379a00000000000000000000000000000000000000000000000000000000081526004016106a990611a82565b60405180910390fd5b6106bc8282610e8f565b5050565b6106c981610f55565b50565b60066020528060005260406000206000915054906101000a900460ff1681565b600460009054906101000a900460ff1681565b60025481565b60075481565b60035481565b600660003373ffffffffffffffffffffffffffffffffffffffff1673ffffffffffffffffffffffffffffffffffffffff16815260200190815260200160002060009054906101000a900460ff1661079d576040517f08c379a000000000000000000000000000000000000000000000000000000000815260040161079490611a82565b60405180910390fd5b60006009600083815260200190815260200160002090508060040160029054906101000a900460ff16610805576040517f08c379a00000000000000000000000000000000000000000000000000000000081526004016107fc90611aee565b60405180910390fd5b80600301548160050160003373ffffffffffffffffffffffffffffffffffffffff1673ffffffffffffffffffffffffffffffffffffffff168152602001908152602001600020540361088c576040517f08c379a000000000000000000000000000000000000000000000000000000000815260040161088390611b5a565b60405180910390fd5b80600301548160060160003373ffffffffffffffffffffffffffffffffffffffff1673ffffffffffffffffffffffffffffffffffffffff1681526020019081526020016000205403610913576040517f08c379a000000000000000000000000000000000000000000000000000000000815260040161090a90611bc6565b60405180910390fd5b80600301548160050160003373ffffffffffffffffffffffffffffffffffffffff1673ffffffffffffffffffffffffffffffffffffffff1681526020019081526020016000208190555080600401600081819054906101000a900460ff168092919061097e90611be6565b91906101000a81548160ff021916908360ff160217905550507f553edf5d6a50b30b5e1faa5428a9962e9b3af648e5ab3791bf7e79ccb10f7f5582336040516109c8929190611c0f565b60405180910390a1600460009054906101000a900460ff1660ff168160040160009054906101000a900460ff1660ff1610158015610a1557508060040160039054906101000a900460ff16155b15610a2457610a2382610f55565b5b5050565b600660003373ffffffffffffffffffffffffffffffffffffffff1673ffffffffffffffffffffffffffffffffffffffff16815260200190815260200160002060009054906101000a900460ff16610ab4576040517f08c379a0000000000000000000000000000000000000000000000000000000008152600401610aab90611a82565b60405180910390fd5b60006009600083815260200190815260200160002090508060040160029054906101000a900460ff16610b1c576040517f08c379a0000000000000000000000000000000000000000000000000000000008152600401610b1390611aee565b60405180910390fd5b80600301548160060160003373ffffffffffffffffffffffffffffffffffffffff1673ffffffffffffffffffffffffffffffffffffffff1681526020019081526020016000205403610ba3576040517f08c379a0000000000000000000000000000000000000000000000000000000008152600401610b9a90611bc6565b60405180910390fd5b80600301548160050160003373ffffffffffffffffffffffffffffffffffffffff1673ffffffffffffffffffffffffffffffffffffffff1681526020019081526020016000205403610c2a576040517f08c379a0000000000000000000000000000000000000000000000000000000008152600401610c2190611b5a565b60405180910390fd5b80600301548160060160003373ffffffffffffffffffffffffffffffffffffffff1673ffffffffffffffffffffffffffffffffffffffff1681526020019081526020016000208190555080600401600181819054906101000a900460ff1680929190610c9590611be6565b91906101000a81548160ff021916908360ff160217905550507f41063fc3dca02ae91075a3d62ddbb87d2571bc1243e63e411b756b53e9ba3fdb8233604051610cdf929190611c0f565b60405180910390a1600460009054906101000a900460ff1660ff168160040160019054906101000a900460ff1660ff1610610d2257610d218262093a80610e8f565b5b5050565b60058181548110610d3657600080fd5b906000526020600020016000915054906101000a900473ffffffffffffffffffffffffffffffffffffffff1681565b6009602052806000526040600020600091509050806000015490806001015490806002018054610d9490611608565b80601f0160208091040260200160405190810160405280929190818152602001828054610dc090611608565b8015610e0d5780601f10610de257610100808354040283529160200191610e0d565b820191906000526020600020905b815481529060010190602001808311610df057829003601f168201915b5050505050908060030154908060040160009054906101000a900460ff16908060040160019054906101000a900460ff16908060040160029054906101000a900460ff16908060040160039054906101000a900460ff16905088565b600160009054906101000a900473ffffffffffffffffffffffffffffffffffffffff1681565b60006009600084815260200190815260200160002090508060040160039054906101000a900460ff1615610ef8576040517f08c379a0000000000000000000000000000000000000000000000000000000008152600401610eef90611c84565b60405180910390fd5b81816001016000828254610f0c9190611ca4565b925050819055507f073d5fd87a7e0c2a384727f9aab2e84826370623aba582638b425a417e799a2c838260010154604051610f48929190611cd8565b60405180910390a1505050565b6000600960008381526020019081526020016000209050600460009054906101000a900460ff1660ff168160040160009054906101000a900460ff1660ff161015610fd5576040517f08c379a0000000000000000000000000000000000000000000000000000000008152600401610fcc90611d4d565b60405180910390fd5b8060040160039054906101000a900460ff1615611027576040517f08c379a000000000000000000000000000000000000000000000000000000000815260040161101e90611db9565b60405180910390fd5b60018160040160036101000a81548160ff02191690831515021790555080600001546003600082825461105a9190611ca4565b925050819055506007600081548092919061107490611740565b91905055507f80230996023d69b50793fa73f1919127c9d8e741d3989743c479169f22e7a2888282600001546040516110ae929190611cd8565b60405180910390a15050565b6000819050919050565b6110cd816110ba565b82525050565b60006020820190506110e860008301846110c4565b92915050565b6000604051905090565b600080fd5b600080fd5b61110b816110ba565b811461111657600080fd5b50565b60008135905061112881611102565b92915050565b600060208284031215611144576111436110f8565b5b600061115284828501611119565b91505092915050565b600081519050919050565b600082825260208201905092915050565b60005b8381101561119557808201518184015260208101905061117a565b60008484015250505050565b6000601f19601f8301169050919050565b60006111bd8261115b565b6111c78185611166565b93506111d7818560208601611177565b6111e0816111a1565b840191505092915050565b600060ff82169050919050565b611201816111eb565b82525050565b60008115159050919050565b61121c81611207565b82525050565b600060e082019050611237600083018a6110c4565b61124460208301896110c4565b818103604083015261125681886111b2565b905061126560608301876111f8565b61127260808301866111f8565b61127f60a0830185611213565b61128c60c0830184611213565b98975050505050505050565b600073ffffffffffffffffffffffffffffffffffffffff82169050919050565b60006112c382611298565b9050919050565b6112d3816112b8565b82525050565b60006020820190506112ee60008301846112ca565b92915050565b600080fd5b600080fd5b7f4e487b7100000000000000000000000000000000000000000000000000000000600052604160045260246000fd5b611336826111a1565b810181811067ffffffffffffffff82111715611355576113546112fe565b5b80604052505050565b60006113686110ee565b9050611374828261132d565b919050565b600067ffffffffffffffff821115611394576113936112fe565b5b61139d826111a1565b9050602081019050919050565b82818337600083830152505050565b60006113cc6113c784611379565b61135e565b9050828152602081018484840111156113e8576113e76112f9565b5b6113f38482856113aa565b509392505050565b600082601f8301126114105761140f6112f4565b5b81356114208482602086016113b9565b91505092915050565b600080604083850312156114405761143f6110f8565b5b600061144e85828601611119565b925050602083013567ffffffffffffffff81111561146f5761146e6110fd565b5b61147b858286016113fb565b9150509250929050565b6000806040838503121561149c5761149b6110f8565b5b60006114aa85828601611119565b92505060206114bb85828601611119565b9150509250929050565b6114ce816112b8565b81146114d957600080fd5b50565b6000813590506114eb816114c5565b92915050565b600060208284031215611507576115066110f8565b5b6000611515848285016114dc565b91505092915050565b60006020820190506115336000830184611213565b92915050565b600060208201905061154e60008301846111f8565b92915050565b60006101008201905061156a600083018b6110c4565b611577602083018a6110c4565b818103604083015261158981896111b2565b905061159860608301886110c4565b6115a560808301876111f8565b6115b260a08301866111f8565b6115bf60c0830185611213565b6115cc60e0830184611213565b9998505050505050505050565b7f4e487b7100000000000000000000000000000000000000000000000000000000600052602260045260246000fd5b6000600282049050600182168061162057607f821691505b602082108103611633576116326115d9565b5b50919050565b7f4e6f7420636f6e74726163746f72000000000000000000000000000000000000600082015250565b600061166f600e83611166565b915061167a82611639565b602082019050919050565b6000602082019050818103600083015261169e81611662565b9050919050565b7f4e6f742063757272656e74206d696c6573746f6e650000000000000000000000600082015250565b60006116db601583611166565b91506116e6826116a5565b602082019050919050565b6000602082019050818103600083015261170a816116ce565b9050919050565b7f4e487b7100000000000000000000000000000000000000000000000000000000600052601160045260246000fd5b600061174b826110ba565b91507fffffffffffffffffffffffffffffffffffffffffffffffffffffffffffffffff820361177d5761177c611711565b5b600182019050919050565b60008190508160005260206000209050919050565b60006020601f8301049050919050565b600082821b905092915050565b6000600883026117ea7fffffffffffffffffffffffffffffffffffffffffffffffffffffffffffffffff826117ad565b6117f486836117ad565b95508019841693508086168417925050509392505050565b6000819050919050565b600061183161182c611827846110ba565b61180c565b6110ba565b9050919050565b6000819050919050565b61184b83611816565b61185f61185782611838565b8484546117ba565b825550505050565b600090565b611874611867565b61187f818484611842565b505050565b5b818110156118a35761189860008261186c565b600181019050611885565b5050565b601f8211156118e8576118b981611788565b6118c28461179d565b810160208510156118d1578190505b6118e56118dd8561179d565b830182611884565b50505b505050565b600082821c905092915050565b600061190b600019846008026118ed565b1980831691505092915050565b600061192483836118fa565b9150826002028217905092915050565b61193d8261115b565b67ffffffffffffffff811115611956576119556112fe565b5b6119608254611608565b61196b8282856118a7565b600060209050601f83116001811461199e576000841561198c578287015190505b6119968582611918565b8655506119fe565b601f1984166119ac86611788565b60005b828110156119d4578489015182556001820191506020850194506020810190506119af565b868310156119f157848901516119ed601f8916826118fa565b8355505b6001600288020188555050505b505050505050565b6000604082019050611a1b60008301856110c4565b8181036020830152611a2d81846111b2565b90509392505050565b7f4e6f7420617070726f7665720000000000000000000000000000000000000000600082015250565b6000611a6c600c83611166565b9150611a7782611a36565b602082019050919050565b60006020820190508181036000830152611a9b81611a5f565b9050919050565b7f50726f6f66206e6f74207375626d697474656400000000000000000000000000600082015250565b6000611ad8601383611166565b9150611ae382611aa2565b602082019050919050565b60006020820190508181036000830152611b0781611acb565b9050919050565b7f416c726561647920617070726f76656400000000000000000000000000000000600082015250565b6000611b44601083611166565b9150611b4f82611b0e565b602082019050919050565b60006020820190508181036000830152611b7381611b37565b9050919050565b7f416c72656164792072656a656374656400000000000000000000000000000000600082015250565b6000611bb0601083611166565b9150611bbb82611b7a565b602082019050919050565b60006020820190508181036000830152611bdf81611ba3565b9050919050565b6000611bf1826111eb565b915060ff8203611c0457611c03611711565b5b600182019050919050565b6000604082019050611c2460008301856110c4565b611c3160208301846112ca565b9392505050565b7f416c726561647920636f6d706c65746564000000000000000000000000000000600082015250565b6000611c6e601183611166565b9150611c7982611c38565b602082019050919050565b60006020820190508181036000830152611c9d81611c61565b9050919050565b6000611caf826110ba565b9150611cba836110ba565b9250828201905080821115611cd257611cd1611711565b5b92915050565b6000604082019050611ced60008301856110c4565b611cfa60208301846110c4565b9392505050565b7f4e6f7420656e6f75676820617070726f76616c73000000000000000000000000600082015250565b6000611d37601483611166565b9150611d4282611d01565b602082019050919050565b60006020820190508181036000830152611d6681611d2a565b9050919050565b7f416c72656164792072656c656173656400000000000000000000000000000000600082015250565b6000611da3601083611166565b9150611dae82611d6d565b602082019050919050565b60006020820190508181036000830152611dd281611d96565b905091905056fea2646970667358221220e585897f6516805b295afb6a440ecf9baaf23710bb6a01f20450bc53c81f0d7464736f6c63430008140033",
  "linkReferences": {},
  "deployedLinkReferences": {}
}